{
  "_format": "hh-sol-artifact-1",
  "contractName": "GameEscrow",
  "sourceName": "contracts/GameEscrow.sol",
  "abi": [
    {
      "inputs": [
        {
          "internalType": "address",
          "name": "_usdt",
          "type": "address"
        }
      ],
      "stateMutability": "nonpayable",
      "type": "constructor"
    },
    {
      "inputs": [
        {
          "internalType": "address",
          "name": "owner",
          "type": "address"
        }
      ],
      "name": "OwnableInvalidOwner",
      "type": "error"
    },
    {
      "inputs": [
        {
          "internalType": "address",
          "name": "account",
          "type": "address"
        }
      ],
      "name": "OwnableUnauthorizedAccount",
      "type": "error"
    },
    {
      "inputs": [],
      "name": "ReentrancyGuardReentrantCall",
      "type": "error"
    },
    {
      "anonymous": false,
      "inputs": [
        {
          "indexed": false,
          "internalType": "uint256",
          "name": "oldCommission",
          "type": "uint256"
        },
        {
          "indexed": false,
          "internalType": "uint256",
          "name": "newCommission",
          "type": "uint256"
        }
      ],
      "name": "CommissionUpdated",
      "type": "event"
    },
    {
      "anonymous": false,
      "inputs": [
        {
          "indexed": true,
          "internalType": "address",
          "name": "to",
          "type": "address"
        },
        {
          "indexed": false,
          "internalType": "uint256",
          "name": "amount",
          "type": "uint256"
        }
      ],
      "name": "CommissionWithdrawn",
      "type": "event"
    },
    {
      "anonymous": false,
      "inputs": [
        {
          "indexed": true,
          "internalType": "address",
          "name": "user",
          "type": "address"
        },
        {
          "indexed": false,
          "internalType": "uint256",
          "name": "amount",
          "type": "uint256"
        }
      ],
      "name": "Deposit",
      "type": "event"
    },
    {
      "anonymous": false,
      "inputs": [
        {
          "indexed": true,
          "internalType": "uint256",
          "name": "gameId",
          "type": "uint256"
        },
        {
          "indexed": true,
          "internalType": "address",
          "name": "player1",
          "type": "address"
        }
      ],
      "name": "GameCancelled",
      "type": "event"
    },
    {
      "anonymous": false,
      "inputs": [
        {
          "indexed": true,
          "internalType": "uint256",
          "name": "gameId",
          "type": "uint256"
        },
        {
          "indexed": true,
          "internalType": "address",
          "name": "winner",
          "type": "address"
        },
        {
          "indexed": false,
          "internalType": "uint256",
          "name": "payout",
          "type": "uint256"
        },
        {
          "indexed": false,
          "internalType": "uint256",
          "name": "commission",
          "type": "uint256"
        }
      ],
      "name": "GameCompleted",
      "type": "event"
    },
    {
      "anonymous": false,
      "inputs": [
        {
          "indexed": true,
          "internalType": "uint256",
          "name": "gameId",
          "type": "uint256"
        },
        {
          "indexed": true,
          "internalType": "address",
          "name": "player1",
          "type": "address"
        },
        {
          "indexed": false,
          "internalType": "uint256",
          "name": "stake",
          "type": "uint256"
        }
      ],
      "name": "GameCreated",
      "type": "event"
    },
    {
      "anonymous": false,
      "inputs": [
        {
          "indexed": true,
          "internalType": "uint256",
          "name": "gameId",
          "type": "uint256"
        },
        {
          "indexed": true,
          "internalType": "address",
          "name": "player2",
          "type": "address"
        }
      ],
      "name": "GameJoined",
      "type": "event"
    },
    {
      "anonymous": false,
      "inputs": [
        {
          "indexed": true,
          "internalType": "address",
          "name": "previousOwner",
          "type": "address"
        },
        {
          "indexed": true,
          "internalType": "address",
          "name": "newOwner",
          "type": "address"
        }
      ],
      "name": "OwnershipTransferred",
      "type": "event"
    },
    {
      "anonymous": false,
      "inputs": [
        {
          "indexed": true,
          "internalType": "address",
          "name": "user",
          "type": "address"
        },
        {
          "indexed": false,
          "internalType": "uint256",
          "name": "amount",
          "type": "uint256"
        }
      ],
      "name": "Withdraw",
      "type": "event"
    },
    {
      "inputs": [
        {
          "internalType": "address",
          "name": "",
          "type": "address"
        }
      ],
      "name": "balances",
      "outputs": [
        {
          "internalType": "uint256",
          "name": "",
          "type": "uint256"
        }
      ],
      "stateMutability": "view",
      "type": "function"
    },
    {
      "inputs": [
        {
          "internalType": "uint256",
          "name": "_gameId",
          "type": "uint256"
        }
      ],
      "name": "cancelGame",
      "outputs": [],
      "stateMutability": "nonpayable",
      "type": "function"
    },
    {
      "inputs": [],
      "name": "commission",
      "outputs": [
        {
          "internalType": "uint256",
          "name": "",
          "type": "uint256"
        }
      ],
      "stateMutability": "view",
      "type": "function"
    },
    {
      "inputs": [
        {
          "internalType": "uint256",
          "name": "_gameId",
          "type": "uint256"
        },
        {
          "internalType": "address",
          "name": "_winner",
          "type": "address"
        }
      ],
      "name": "completeGame",
      "outputs": [],
      "stateMutability": "nonpayable",
      "type": "function"
    },
    {
      "inputs": [
        {
          "internalType": "uint256",
          "name": "_stake",
          "type": "uint256"
        }
      ],
      "name": "createGame",
      "outputs": [
        {
          "internalType": "uint256",
          "name": "",
          "type": "uint256"
        }
      ],
      "stateMutability": "nonpayable",
      "type": "function"
    },
    {
      "inputs": [
        {
          "internalType": "uint256",
          "name": "_amount",
          "type": "uint256"
        }
      ],
      "name": "deposit",
      "outputs": [],
      "stateMutability": "nonpayable",
      "type": "function"
    },
    {
      "inputs": [],
      "name": "gameCounter",
      "outputs": [
        {
          "internalType": "uint256",
          "name": "",
          "type": "uint256"
        }
      ],
      "stateMutability": "view",
      "type": "function"
    },
    {
      "inputs": [
        {
          "internalType": "uint256",
          "name": "",
          "type": "uint256"
        }
      ],
      "name": "games",
      "outputs": [
        {
          "internalType": "address",
          "name": "player1",
          "type": "address"
        },
        {
          "internalType": "address",
          "name": "player2",
          "type": "address"
        },
        {
          "internalType": "uint256",
          "name": "stake",
          "type": "uint256"
        },
        {
          "internalType": "bool",
          "name": "completed",
          "type": "bool"
        },
        {
          "internalType": "address",
          "name": "winner",
          "type": "address"
        }
      ],
      "stateMutability": "view",
      "type": "function"
    },
    {
      "inputs": [
        {
          "internalType": "address",
          "name": "_user",
          "type": "address"
        }
      ],
      "name": "getBalance",
      "outputs": [
        {
          "internalType": "uint256",
          "name": "",
          "type": "uint256"
        }
      ],
      "stateMutability": "view",
      "type": "function"
    },
    {
      "inputs": [],
      "name": "getCommissionRate",
      "outputs": [
        {
          "internalType": "uint256",
          "name": "",
          "type": "uint256"
        }
      ],
      "stateMutability": "view",
      "type": "function"
    },
    {
      "inputs": [
        {
          "internalType": "uint256",
          "name": "_gameId",
          "type": "uint256"
        }
      ],
      "name": "getGame",
      "outputs": [
        {
          "components": [
            {
              "internalType": "address",
              "name": "player1",
              "type": "address"
            },
            {
              "internalType": "address",
              "name": "player2",
              "type": "address"
            },
            {
              "internalType": "uint256",
              "name": "stake",
              "type": "uint256"
            },
            {
              "internalType": "bool",
              "name": "completed",
              "type": "bool"
            },
            {
              "internalType": "address",
              "name": "winner",
              "type": "address"
            }
          ],
          "internalType": "struct GameEscrow.Game",
          "name": "",
          "type": "tuple"
        }
      ],
      "stateMutability": "view",
      "type": "function"
    },
    {
      "inputs": [
        {
          "internalType": "uint256",
          "name": "_gameId",
          "type": "uint256"
        }
      ],
      "name": "joinGame",
      "outputs": [],
      "stateMutability": "nonpayable",
      "type": "function"
    },
    {
      "inputs": [],
      "name": "owner",
      "outputs": [
        {
          "internalType": "address",
          "name": "",
          "type": "address"
        }
      ],
      "stateMutability": "view",
      "type": "function"
    },
    {
      "inputs": [],
      "name": "renounceOwnership",
      "outputs": [],
      "stateMutability": "nonpayable",
      "type": "function"
    },
    {
      "inputs": [
        {
          "internalType": "uint256",
          "name": "_commission",
          "type": "uint256"
        }
      ],
      "name": "setCommission",
      "outputs": [],
      "stateMutability": "nonpayable",
      "type": "function"
    },
    {
      "inputs": [],
      "name": "totalCommission",
      "outputs": [
        {
          "internalType": "uint256",
          "name": "",
          "type": "uint256"
        }
      ],
      "stateMutability": "view",
      "type": "function"
    },
    {
      "inputs": [
        {
          "internalType": "address",
          "name": "newOwner",
          "type": "address"
        }
      ],
      "name": "transferOwnership",
      "outputs": [],
      "stateMutability": "nonpayable",
      "type": "function"
    },
    {
      "inputs": [],
      "name": "usdt",
      "outputs": [
        {
          "internalType": "contract IERC20",
          "name": "",
          "type": "address"
        }
      ],
      "stateMutability": "view",
      "type": "function"
    },
    {
      "inputs": [
        {
          "internalType": "uint256",
          "name": "_amount",
          "type": "uint256"
        }
      ],
      "name": "withdraw",
      "outputs": [],
      "stateMutability": "nonpayable",
      "type": "function"
    },
    {
      "inputs": [
        {
          "internalType": "uint256",
          "name": "_amount",
          "type": "uint256"
        }
      ],
      "name": "withdrawCommission",
      "outputs": [],
      "stateMutability": "nonpayable",
      "type": "function"
    }
  ],
  "bytecode": "0x60806040526101f460035534801561001657600080fd5b5060405161139a38038061139a83398101604081905261003591610135565b338061005c57604051631e4fbdf760e01b8152600060048201526024015b60405180910390fd5b610065816100e5565b50600180556001600160a01b0381166100c05760405162461bcd60e51b815260206004820152601460248201527f496e76616c6964205553445420616464726573730000000000000000000000006044820152606401610053565b600280546001600160a01b0319166001600160a01b0392909216919091179055610165565b600080546001600160a01b038381166001600160a01b0319831681178455604051919092169283917f8be0079c531659141344cd1fd0a4f28419497f9722a3daafe3b4186f6b6457e09190a35050565b60006020828403121561014757600080fd5b81516001600160a01b038116811461015e57600080fd5b9392505050565b611226806101746000396000f3fe608060405234801561001057600080fd5b506004361061012c5760003560e01c8063715018a6116100ad578063c0320dbc11610071578063c0320dbc146103a9578063e1489191146103b2578063efaa55a0146103bb578063f2fde38b146103ce578063f8b2cb4f146103e157600080fd5b8063715018a6146102835780638da5cb5b1461028b578063a2f77bcc1461029c578063a6ff668914610383578063b6b55f251461039657600080fd5b80632f48ab7d116100f45780632f48ab7d14610217578063355e6b43146102425780633e4eb36c1461025557806348e837b91461025d57806369958ab91461027057600080fd5b8063117a5b901461013157806317face84146101b857806327e235e3146101cd5780632e0be39a146101fb5780632e1a7d4d14610204575b600080fd5b61017d61013f366004611030565b60056020526000908152604090208054600182015460028301546003909301546001600160a01b03928316939183169260ff82169161010090041685565b604080516001600160a01b039687168152948616602086015284019290925215156060830152909116608082015260a0015b60405180910390f35b6101cb6101c6366004611030565b61040a565b005b6101ed6101db366004611065565b60076020526000908152604090205481565b6040519081526020016101af565b6101ed60065481565b6101cb610212366004611030565b610592565b60025461022a906001600160a01b031681565b6040516001600160a01b0390911681526020016101af565b6101cb610250366004611030565b6106f5565b6003546101ed565b6101ed61026b366004611030565b61077a565b6101cb61027e366004611030565b610912565b6101cb610a56565b6000546001600160a01b031661022a565b6103366102aa366004611030565b6040805160a08101825260008082526020820181905291810182905260608101829052608081019190915250600090815260056020908152604091829020825160a08101845281546001600160a01b03908116825260018301548116938201939093526002820154938101939093526003015460ff811615156060840152610100900416608082015290565b6040516101af919081516001600160a01b03908116825260208084015182169083015260408084015190830152606080840151151590830152608092830151169181019190915260a00190565b6101cb610391366004611087565b610a6a565b6101cb6103a4366004611030565b610c53565b6101ed60045481565b6101ed60035481565b6101cb6103c9366004611030565b610d8d565b6101cb6103dc366004611065565b610f4e565b6101ed6103ef366004611065565b6001600160a01b031660009081526007602052604090205490565b610412610f89565b61041a610fb6565b6004548111156104715760405162461bcd60e51b815260206004820152601760248201527f496e73756666696369656e7420636f6d6d697373696f6e00000000000000000060448201526064015b60405180910390fd5b806004600082825461048391906110c9565b90915550506002546001600160a01b031663a9059cbb6104ab6000546001600160a01b031690565b6040516001600160e01b031960e084901b1681526001600160a01b039091166004820152602481018490526044016020604051808303816000875af11580156104f8573d6000803e3d6000fd5b505050506040513d601f19601f8201168201806040525081019061051c91906110e2565b6105385760405162461bcd60e51b815260040161046890611104565b6000546001600160a01b03166001600160a01b03167fd244b5a3b2e3977ecffe1a5e5ab7661aadfecbae24be711b7a72bb42bd1b2db08260405161057e91815260200190565b60405180910390a261058f60018055565b50565b61059a610fb6565b600081116105df5760405162461bcd60e51b81526020600482015260126024820152710416d6f756e74206d757374206265203e20360741b6044820152606401610468565b3360009081526007602052604090205481111561060e5760405162461bcd60e51b81526004016104689061112d565b336000908152600760205260408120805483929061062d9084906110c9565b909155505060025460405163a9059cbb60e01b8152336004820152602481018390526001600160a01b039091169063a9059cbb906044016020604051808303816000875af1158015610683573d6000803e3d6000fd5b505050506040513d601f19601f820116820180604052508101906106a791906110e2565b6106c35760405162461bcd60e51b815260040161046890611104565b60405181815233907f884edad9ce6fa2440d8a54cc123490eb96d2768479d49ff9c7366125a94243649060200161057e565b6106fd610f89565b6105dc8111156107395760405162461bcd60e51b81526020600482015260076024820152664d61782031352560c81b6044820152606401610468565b60035460408051918252602082018390527f727fc7ef8a938d1f5e3bf0cfbcf2d8efc8534cb25542ef8fd4e67450e8994bff910160405180910390a1600355565b60008082116107bf5760405162461bcd60e51b815260206004820152601160248201527005374616b65206d757374206265203e203607c1b6044820152606401610468565b336000908152600760205260409020548211156107ee5760405162461bcd60e51b81526004016104689061112d565b336000908152600760205260408120805484929061080d9084906110c9565b909155505060068054600091826108238361115b565b909155506040805160a08101825233808252600060208084018281528486018a81526060860184815260808701858152898652600590945293879020955186546001600160a01b039182166001600160a01b031991821617885592516001880180549183169190941617909255516002860155915160039094018054915190921661010002610100600160a81b0319941515949094166001600160a81b0319909116179290921790915590519192509082907f7dfb67e9ff596fca4da65c7eedb128cd1aac553af54b3c0cb733625a2480d8bd906109049087815260200190565b60405180910390a392915050565b600081815260056020526040902080546001600160a01b0316331461096c5760405162461bcd60e51b815260206004820152601060248201526f2737ba1033b0b6b29031b932b0ba37b960811b6044820152606401610468565b60018101546001600160a01b0316156109be5760405162461bcd60e51b815260206004820152601460248201527311d85b5948185b1c9958591e481cdd185c9d195960621b6044820152606401610468565b600381015460ff16156109e35760405162461bcd60e51b815260040161046890611174565b600281015481546001600160a01b031660009081526007602052604081208054909190610a119084906111a4565b909155505060038101805460ff19166001179055604051339083907f58f64e02b3a6d2a3bd28b7700a0a0d6699545bcb55bf917ac0ff670f3a509efb90600090a35050565b610a5e610f89565b610a686000610fe0565b565b610a72610f89565b6000828152600560205260409020600381015460ff1615610aa55760405162461bcd60e51b815260040161046890611174565b60018101546001600160a01b0316610af25760405162461bcd60e51b815260206004820152601060248201526f11d85b59481b9bdd081cdd185c9d195960821b6044820152606401610468565b80546001600160a01b0383811691161480610b1c575060018101546001600160a01b038381169116145b610b595760405162461bcd60e51b815260206004820152600e60248201526d24b73b30b634b2103bb4b73732b960911b6044820152606401610468565b600081600201546002610b6c91906111b7565b9050600061271060035483610b8191906111b7565b610b8b91906111ce565b90506000610b9982846110c9565b6003850180546001600160a01b03881661010081026001600160a81b031990921691909117600117909155600090815260076020526040812080549293508392909190610be79084906111a4565b925050819055508160046000828254610c0091906111a4565b909155505060408051828152602081018490526001600160a01b0387169188917fa3a193cd49fb44d3709b2d13235998e900d960268b8356d3c2233340fd215c38910160405180910390a3505050505050565b610c5b610fb6565b60008111610ca05760405162461bcd60e51b81526020600482015260126024820152710416d6f756e74206d757374206265203e20360741b6044820152606401610468565b6002546040516323b872dd60e01b8152336004820152306024820152604481018390526001600160a01b03909116906323b872dd906064016020604051808303816000875af1158015610cf7573d6000803e3d6000fd5b505050506040513d601f19601f82011682018060405250810190610d1b91906110e2565b610d375760405162461bcd60e51b815260040161046890611104565b3360009081526007602052604081208054839290610d569084906111a4565b909155505060405181815233907fe1fffcc4923d04b559f4d29a8bfc6cda04eb5b0d3c460751c2402c5c5cc9109c9060200161057e565b600081815260056020526040902080546001600160a01b0316610de85760405162461bcd60e51b815260206004820152601360248201527211d85b5948191bd95cc81b9bdd08195e1a5cdd606a1b6044820152606401610468565b60018101546001600160a01b031615610e375760405162461bcd60e51b815260206004820152601160248201527011d85b5948185b1c9958591e48199d5b1b607a1b6044820152606401610468565b600381015460ff1615610e5c5760405162461bcd60e51b815260040161046890611174565b80546001600160a01b03163303610eac5760405162461bcd60e51b815260206004820152601460248201527343616e6e6f74206a6f696e206f776e2067616d6560601b6044820152606401610468565b6002810154336000908152600760205260409020541015610edf5760405162461bcd60e51b81526004016104689061112d565b60028101543360009081526007602052604081208054909190610f039084906110c9565b90915550506001810180546001600160a01b0319163390811790915560405183907f45c4f9cbafe186141862608c493f28b823fde4c2142bedc3f5169961a73fdd2290600090a35050565b610f56610f89565b6001600160a01b038116610f8057604051631e4fbdf760e01b815260006004820152602401610468565b61058f81610fe0565b6000546001600160a01b03163314610a685760405163118cdaa760e01b8152336004820152602401610468565b600260015403610fd957604051633ee5aeb560e01b815260040160405180910390fd5b6002600155565b600080546001600160a01b038381166001600160a01b0319831681178455604051919092169283917f8be0079c531659141344cd1fd0a4f28419497f9722a3daafe3b4186f6b6457e09190a35050565b60006020828403121561104257600080fd5b5035919050565b80356001600160a01b038116811461106057600080fd5b919050565b60006020828403121561107757600080fd5b61108082611049565b9392505050565b6000806040838503121561109a57600080fd5b823591506110aa60208401611049565b90509250929050565b634e487b7160e01b600052601160045260246000fd5b818103818111156110dc576110dc6110b3565b92915050565b6000602082840312156110f457600080fd5b8151801515811461108057600080fd5b6020808252600f908201526e151c985b9cd9995c8819985a5b1959608a1b604082015260600190565b602080825260149082015273496e73756666696369656e742062616c616e636560601b604082015260600190565b60006001820161116d5761116d6110b3565b5060010190565b60208082526016908201527511d85b5948185b1c9958591e4818dbdb5c1b195d195960521b604082015260600190565b808201808211156110dc576110dc6110b3565b80820281158282048414176110dc576110dc6110b3565b6000826111eb57634e487b7160e01b600052601260045260246000fd5b50049056fea2646970667358221220334902dc61350fd9299a5a240f9011641018f46e4cb0ba11bd97c8b1bc453f8364736f6c63430008140033",
  "linkReferences": {},
  "deployedLinkReferences": {}
}